:020000040000fa
:080000000002040000000000f2
:020000040000fa
:10000800140e0000140e0000140e0000140e000060
:10001800140e0000140e0000140e0000140e000050
:10002800140e0000140e0000140e0000a6020000ba
:10003800140e0000140e0000140e0000140e000030
:10004800140e0000140e0000140e00006c030000d3
:10005800b0030000140e0000140e0000140e00007f
:10006800140e0000140e0000140e0000140e000000
:10007800140e0000140e0000140e0000140e0000f0
:10008800140e0000140e0000140e0000140e0000e0
:10009800140e0000140e0000140e0000140e0000d0
:1000a800140e0000140e0000140e0000140e0000c0
:1000b800140e0000140e0000140e0000140e0000b0
:1000c800140e0000140e0000140e0000140e0000a0
:1000d800140e0000140e0000140e0000140e000090
:1000e800140e0000140e000010060000140e00008c
:1000f800140e0000140e0000140e0000140e000070
:10010800140e0000140e0000140e0000140e00005f
:10011800140e0000140e0000140e0000140e00004f
:10012800140e0000140e0000140e0000140e00003f
:10013800140e0000140e0000140e0000140e00002f
:10014800140e0000140e0000140e0000140e00001f
:10015800140e0000140e0000140e0000140e00000f
:10016800140e0000140e0000140e0000140e0000ff
:10017800140e0000140e0000d21f0000140e000020
:10018800140e0000140e0000140e0000140e0000df
:10019800140e0000140e0000140e0000140e0000cf
:1001a800140e0000140e0000140e0000140e0000bf
:1001b800140e0000140e0000140e0000140e0000af
:1001c800140e0000140e0000140e0000140e00009f
:1001d800140e0000140e0000140e0000140e00008f
:1001e800140e0000140e0000140e0000140e00007f
:0801f800140e0000140e0000bb
:020000040000fa
:10020800140e0000140e0000140e0000140e00005e
:10021800140e0000140e0000140e0000140e00004e
:10022800140e0000140e0000140e0000a6020000b8
:10023800140e0000140e0000140e0000140e00002e
:10024800140e0000140e0000140e00006c030000d1
:10025800b0030000140e0000140e0000140e00007d
:10026800140e0000140e0000140e0000140e0000fe
:10027800140e0000140e0000140e0000140e0000ee
:10028800140e0000140e0000140e0000140e0000de
:10029800140e0000140e0000140e0000140e0000ce
:1002a800140e0000140e0000140e0000140e0000be
:1002b800140e0000140e0000140e0000140e0000ae
:1002c800140e0000140e0000140e0000140e00009e
:1002d800140e0000140e0000140e0000140e00008e
:1002e800140e0000140e000010060000140e00008a
:1002f800140e0000140e0000140e0000140e00006e
:10030800140e0000140e0000140e0000140e00005d
:10031800140e0000140e0000140e0000140e00004d
:10032800140e0000140e0000140e0000140e00003d
:10033800140e0000140e0000140e0000140e00002d
:10034800140e0000140e0000140e0000140e00001d
:10035800140e0000140e0000140e0000140e00000d
:10036800140e0000140e0000140e0000140e0000fd
:10037800140e0000140e0000d21f0000140e00001e
:10038800140e0000140e0000140e0000140e0000dd
:10039800140e0000140e0000140e0000140e0000cd
:1003a800140e0000140e0000140e0000140e0000bd
:1003b800140e0000140e0000140e0000140e0000ad
:1003c800140e0000140e0000140e0000140e00009d
:1003d800140e0000140e0000140e0000140e00008d
:1003e800140e0000140e0000140e0000140e00007d
:0803f800140e0000140e0000b9
:020000040000fa
:100400002f9e21000e7f22000e01880000000000b8
:10041000000020000000e000020032000001200087
:10042000200288000c000700e0dc2300010020000f
:1004300011000700000020000000e0000200320070
:1004400000000200000000007840020000000000f0
:100450000040da000000fe004440a900801d20009a
:100460000000e0000300320000002000a00188002e
:100470004440a80000000600910188008000780038
:100480000000eb0015003700e280400032a0b4000d
:100490009101ba00e280400032a0b4009102ba009b
:1004a000e280400032a0b4000002eb00472bde00e7
:1004b000f507b200602ce10004003a000059eb009f
:1004c0008301e900fdff3e00040037006128e100e0
:1004d000010032000082eb00040007001101ba00a5
:1004e0000200e000e8ff3a00000006003159ba00bf
:1004f0008301e9000c0032002159ba008301e900b0
:10050000080032000400e00003003a00e2804000ee
:1005100032a0b400f5ff370011d9ba008301e90019
:10052000faff3a008100e800e180400032a0b40008
:1005300000000600000000000000000000000000b5
:100540000000000000000000000000003600f8007d
:10055000809fbe00829fbe00849fbe00869fbe001b
:100560004000fa008460a900c49580000402e800fd
:10057000c4958800849580009595800061024200b2
:10058000e0824a008495880095958800e49f800069
:100590000402e800e49f8800b9190700e49f800086
:1005a000e90f52002a003600a4958000b59580001e
:1005b000040278006102620004f0a7000402ea006d
:1005c0000402e9004f22de00c0958000a69580005d
:1005d000b79580008602780061836200d5a1800013
:1005e00085037800f5ff200085826300841f780072
:1005f000801f7800861f7800851f780044eb290053
:10060000841f78000e00780090050700ea875700e5
:10061000221d07000002eb00e49f8800f49f800089
:100620006a024200f49f8800f59f80003406200093
:10063000848f52000600360014c0b30004437800d3
:10064000c52a2100864a78000002eb00f49f88004a
:10065000c5958000743e2000848f5200080036004b
:10066000a4958000b595800061024200e0824a00b6
:10067000a4958800b59588000002eb00c495880019
:100680000080fa004f03be004f02be004f01be00c3
:100690004f00be003600f900004006000000fa00de
:1006a0000002eb00240888000002eb000408880028
:1006b000f4e72300140888009460a8002408800050
:1006c0000440a1000450a1002408880005e1a8000e
:1006d0000080fa00000006003600f800809fbe008f
:1006e000829fbe00849fbe00869fbe000400fa0069
:1006f00024c5b300044f78000d003700341180008a
:10070000140798001e02900004427800044078000c
:10071000750007009e02fb001e029000848f5200ad
:1007200003003a0000002000f10f20009f1c07008a
:100730001411800061026200e00f5200efff3a00e6
:100740008560a9000080fa004f03be004f02be0082
:100750004f01be004f00be003600f9000040060009
:10076000849fbe000000fa001200370095948000bc
:100770000419210004824200144278000482fb0024
:1007800024118800ff3ffc00949480000402e800dc
:100790009494880095948000f40f200004826200f5
:1007a00094948800a49480000402e900a494880032
:1007b0000000fc00a4948000e00f5200050032000d
:1007c000151180000420200004826200e00f520016
:1007d000e6ff32008580a9000080fa004f02be00cb
:1007e000004006001200fa004007980051079800e8
:1007f00062079800730798000457980015579800ef
:1008000064024700840278000e0278006e019000b6
:10081000fe0190004e009000de0090006200070094
:100820000002eb00041188000002eb0014118800a4
:10083000041180000480a1000490a000041188002d
:100840002e029000be0290000442780061426200d5
:100850000482fb00610262004322dd000611800079
:1008600075ff2f00850263000502720004118800e5
:1008700023a2a8001e02be000402780044118800d2
:1008800021e2a8002342a8008580a9001e52900002
:10089000614262000482fb00610262004c22dd00c2
:1008a000a6048000f5ff2e00850263000502720099
:1008b000a40488008560a9000e5290006142620085
:1008c0000482fb00610262004b22dd00a60480006e
:1008d000f57f2f008502630005027200a4048800e2
:1008e0000080fa00000006000400fa00204798008b
:1008f00000c2eb00044f7800ff3ffc00a59480008d
:10090000f40f2000848f520011003e008594800077
:100910000419210004824200ae429000054a78008a
:10092000a49480000402e800a494880084948000c9
:100930000402e8008494880085948000f40f20006d
:10094000048262008494880014c0b300044f7800cd
:100950000000fc008580a8001e427800044078005a
:100960000080fa00000006000200fa00000f780084
:10097000050037001e027800144278000440780019
:10098000d9ff07001e0fe8001e027800144278000d
:10099000e04f5200f7ff3a0014c0b3000440780063
:1009a0000080fa00000006001c00fa00889fbe00cc
:1009b000000f9800110f9800220f9800330f980035
:1009c000440f9800550f98002e0b9000be0b90001e
:1009d000423add00ce32de00850272004232dd0096
:1009e0000401be000e0890009e089000a8070700b2
:1009f0000002be000083eb008083eb00061f420074
:100a000007974a002e0b9000be0b9000443add0081
:100a1000cc32de00850272004432dd000401be00eb
:100a20000e0890009e089000990707000002be0083
:100a300061025200e0825a002407980035079800ae
:100a40000e0890009e0890001d0707000004be00dd
:100a50001e00be001a0707000002be0002002000b0
:100a600003f823000400be00710607000002be0068
:100a700002002000030824000400be005007070005
:100a80000002be000401be000800be00c50607004b
:100a90000002be000404be002e089000be089000b4
:100aa000070707000002be000401be000800be00e8
:100ab0005e0607000002be000404be002e0890007f
:100ac000be089000fe0607000002be000401be0042
:100ad0000800be00b30607000002be0044079800ed
:100ae000550798000e0890009e089000f406070035
:100af0000004be002e009000be009000f00607002b
:100b00000002be000200200003f823000400be0023
:100b1000470607000002be00020020000318240060
:100b20000400be00260707000002be000401be004c
:100b30000800be009b0607000002be000404be00c1
:100b40002e089000be089000dd0607000002be00df
:100b50000401be000800be00340607000002be000b
:100b60000404be002e089000be089000d4060700c2
:100b70000002be000401be000800be008906070096
:100b80000002be0064079800750798004e029000ae
:100b9000de0290000403be0007f0a1006e02900088
:100ba000fe02900005f0a10018c0b3000401be00d1
:100bb0000600be00bd06070000027800e00f5200ec
:100bc000010035000044eb00e04f54000800320003
:100bd0004e0a90003e1a78002e1278005e0b9000ac
:100be0001400200005002000048bbe000700370021
:100bf0004e0a90002e039000be039000068abe00ad
:100c00005e0b90006022b800048bbe0014c0b300dd
:100c1000044078004f04be000080fa000000060087
:100c20003600f800809fbe00829fbe00849fbe00f9
:100c3000869fbe000000fa008a40a90064392100a6
:100c400014427800e04f5200c601320014c0b300d5
:100c50000443780075392100864a78005439210010
:100c6000144278000482fb006e22b900040278006e
:100c7000ea02420044322100048242001442900001
:100c8000e04f5200c1003a00c43a210014427800fb
:100c90000482fb00cfa2de005600200007002000e7
:100ca000860f5200878f5a00b3013e000460010096
:100cb000050037000c0037002f00370040003700d8
:100cc000500037009d0037001602a800c43a2100ea
:100cd000144278000442e80004437800c53a210039
:100ce000864a7800a8003700543921001442780061
:100cf0000482fb006e22b900040278008482e800be
:100d00004432210004824200144278000482fb0035
:100d10009410880054392100144278000482fb00aa
:100d20006e22b90004027800ec0242004432210035
:100d30000482420014427800e14f520007003a005a
:100d4000c43a2100144278000442e80004437800c9
:100d5000c53a2100864a780006003700c43a2100cf
:100d60001442780004c2e80004437800c53a210028
:100d7000864a7800840037005439210014427800f4
:100d80000482fb006e22b90004027800e4024200f3
:100d90004432210004824200140278004822de001e
:100da00094108800c43a2100144278000442e800fc
:100db00004437800c53a2100864a78007200370063
:100dc00054392100144278000482fb006e22b900dd
:100dd00004027800e402420044322100048242000e
:100de0001402780094108800c43a2100144278005c
:100df0000442e80004437800c53a2100864a78009e
:100e00006100370054392100144278000482fb004d
:100e10006e22b90004027800e6024200443221004a
:100e20000482420094027800749d80008482420013
:100e3000954278008582fb00951088000402e80046
:100e4000749d880054392100144278000482fb000c
:100e50006e22b90004027800e80242004432210008
:100e60000482420094027800749d8000848f5200b6
:100e700031003e00c43a2100144278000442e800e8
:100e800004437800c53a2100864a78000002eb004e
:100e9000749d880054392100144278000482fb00bc
:100ea0006e22b9008402780044322100048242009c
:100eb00014027800e00f52001f0032005439210064
:100ec000144278000482fb006e22b900040278000c
:100ed000ea024200443221000482420014427800b7
:100ee000e14f52000a003a005439210014427800c0
:100ef0000482fb006e22b900840278004432210093
:100f00000482420014027800040001000a00370045
:100f100054392100144278000482fb006e22b9008b
:100f200084027800443221000482420014027800d6
:100f300004007800d7020700130037001642a8000b
:100f40000042eb0004437800c53a2100864a78004d
:100f500054392100144278000442e80067426200dc
:100f60000443780055392100864a7800643921000d
:100f7000144278000442e9000443780065392100f6
:100f8000864a780000000000fe00370014c0b3005d
:100f90000443780075392100864a7800c43a21005c
:100fa000144278000482fb00cfa2de0086002000fd
:100fb00007002000860f5200878f5a00f0003e0085
:100fc00004600100080037000f00370032003700ce
:100fd00043003700530037005a0037006c003700d9
:100fe00073003700cc0037001602a800c43a210075
:100ff000144278000442e80004437800c53a210016
:10100000864a7800df003700543921001442780006
:101010000482fb006e22b900040278008482e8009a
:101020004432210004824200144278000482fb0012
:101030009410880054392100144278000482fb0087
:101040006e22b90004027800ec0242004432210012
:101050000482420014427800e14f520007003a0037
:10106000c43a2100144278000442e80004437800a6
:10107000c53a2100864a7800c2003700c43a2100f0
:101080001442780004c2e80004437800c53a210005
:10109000864a7800bb00370054392100144278009a
:1010a0000482fb006e22b90004027800e4024200d0
:1010b0004432210004824200140278004822de00fb
:1010c00094108800c43a2100144278000442e800d9
:1010d00004437800c53a2100864a7800a900370009
:1010e00054392100144278000482fb006e22b900ba
:1010f00004027800e40242004432210004824200eb
:101100001402780094108800c43a21001442780038
:101110000442e80004437800c53a2100864a78007a
:10112000980037001622a800c43a21001442780023
:101130000442e80004437800c53a2100864a78005a
:101140009000370054392100144278000482fb00db
:101150006e22b900040278008482e8004432210043
:1011600004824200144278000404a0000482fb00c0
:1011700094108800c43a2100144278000442e80028
:1011800004437800c53a2100864a78007d00370084
:101190001662a800c43a2100144278000442e80014
:1011a00004437800c53a2100864a7800750037006c
:1011b00054392100144278000482fb006e22b900e9
:1011c00004027800e6024200443221000482420018
:1011d00094027800749d8000848242008610800012
:1011e00006437800864a78000402e800749d88006f
:1011f00054392100144278000482fb006e22b900a9
:1012000004027800e80242004432210004824200d5
:1012100094027800749d8000848f520034003e0058
:1012200016a2a800c43a2100144278000442e80043
:1012300004437800c53a2100864a78001662a90066
:101240000002eb00749d880054392100144278009c
:101250000482fb006e22b90084027800443221002f
:101260000482420014027800e00f5200270032008e
:1012700054392100144278000482fb006e22b90028
:1012800004027800ea024200443221000482420053
:1012900014427800e14f52000a003a00543921000c
:1012a000144278000482fb006e22b90084027800a8
:1012b000443221000482420014027800040001003c
:1012c0001200370054392100144278000482fb00d8
:1012d0006e22b90084027800443221000482420068
:1012e0001402780004007800ea01070007003700c4
:1012f00016a2a900c43a2100144278000442e90071
:1013000004437800c53a2100864a78001682a80076
:10131000000000001b0037001642a8000042eb004e
:1013200004437800c53a2100864a780054392100e8
:10133000144278000442e8006742620004437800e7
:1013400055392100864a780064392100144278001a
:101350000442e9000443780065392100864a780098
:10136000080037000042eb00044378007539210083
:10137000864a7800030037000000000001003700b3
:10138000000000000080fa004f03be004f02be00c4
:101390004f01be004f00be003600f90000400600bd
:1013a0000000fa0017e2a90017a2a9001762a9001d
:1013b0001722a8001702a90016e2a9005402200073
:1013c000a41088000002eb00841088000002eb00eb
:1013d00094108800e40580000480a0000490a1001f
:1013e00004a0a100e40588008a40a9009a40a80052
:1013f0000042eb000443780065392100864a7800fa
:101400000042eb000443780055392100864a7800f9
:101410000042eb000443780045392100864a7800f9
:101420000042eb000443780075392100864a7800b9
:1014300017e2a8000080fa00000006000800fa0089
:10144000004f780011479800120798002307980072
:1014500034079800ff3ffc006439210014427800f3
:10146000e74f520056003e004439210014427800f4
:101470000482fb006e22b90084027800e43221006d
:10148000048242008042eb0015429800443921005a
:10149000144278000482fb006e22b90084027800b6
:1014a00004332100048242008042eb00054a7800a8
:1014b00044392100144278000482fb00e5cfb300d8
:1014c0001ec362006e22b9008402780064322100db
:1014d00004824200064a7800443921001442780010
:1014e0000482fb009e4290000583fb006e22b9003f
:1014f000840278008432210004824200060a7800c7
:1015000044392100144278000482fb006e22b900a5
:1015100084027800a4322100048242009e029000de
:10152000050a780044392100144278000482fb0047
:101530006e22b90084027800c43221000482420085
:101540002e039000060a78004439210014427800e6
:101550000482fb006e22b90084027800443221002c
:1015600004824200be029000050a7800443921003e
:10157000144278000442e800674262008442780026
:1015800046392100054b7800643921001442780067
:101590000442e8008442780066392100054b780057
:1015a0007439210014427800e04f520001003a00e3
:1015b0008a40a8000000fc0014c0b30002003700fd
:1015c0000000fc0000c2eb00044078000080fa003c
:1015d000000006000800fa00004f7800114798004c
:1015e000120798002307980034079800ff3ffc007b
:1015f0006439210014427800e74f520056003e0043
:1016000044392100144278000482fb006e22b900a4
:1016100084027800e43221000482420015c0b30045
:101620001542980044392100144278000482fb00de
:101630006e22b90084027800043321000482420043
:101640008042eb00054a78004439210014427800ba
:101650000482fb00e5cfb3001ec362006e22b90016
:10166000840278006432210004824200064a780035
:1016700044392100144278000482fb009e4290000d
:101680000583fb006e22b9008402780084322100b9
:1016900004824200060a780044392100144278008e
:1016a0000482fb006e22b90084027800a43221007b
:1016b000048242009e029000050a7800443921000d
:1016c000144278000482fb006e22b9008402780084
:1016d000c4322100048242002e039000060a7800e2
:1016e00044392100144278000482fb006e22b900c4
:1016f000840278004432210004824200be0290003d
:10170000050a780044392100144278000442e800b8
:10171000674262008442780046392100054b780018
:1017200064392100144278000442e80084427800c1
:1017300066392100054b7800743921001442780085
:10174000e04f520001003a008a40a8000000fc006f
:1017500014c0b300020037000000fc0000c2eb0020
:10176000044078000080fa00000006000a00fa0039
:10177000004f78001107980022079800330798005f
:1017800044079800ff3ffc006439210014427800b0
:10179000e74f520055003e004439210014427800c2
:1017a0000482fb006e22b90084027800e43221003a
:1017b000048242008042eb00154298004439210027
:1017c000144278000482fb006e22b9008402780083
:1017d000043321000482420015c0b300054a78009a
:1017e00044392100144278000482fb00e5cfb300a5
:1017f0001ec362006e22b9008402780064322100a8
:1018000004824200064a78004439210014427800dc
:101810000482fb006e22b900840278008432210029
:10182000048242009e029000050a7800443921009b
:10183000144278000482fb006e22b9008402780012
:10184000a4322100048242002e039000060a780090
:1018500044392100144278000482fb006e22b90052
:1018600084027800c432210004824200be0290004b
:10187000050a780044392100144278000482fb00f4
:101880006e22b900840278004432210004824200b2
:101890004e039000060a7800443921001442780073
:1018a0000442e800674262000443780045392100a1
:1018b000864a780064392100144278000442e80026
:1018c0000443780065392100864a78007439210084
:1018d00014427800e04f520001003a008a40a8000c
:1018e0000000fc0014c0b300020037000000fc0040
:1018f00000c2eb00044078000080fa0000000600ff
:101900000a00fa00004f780011079800220798009b
:101910003307980044079800ff3ffc00643921001a
:1019200014427800e74f520055003e004439210030
:10193000144278000482fb006e22b9008402780011
:10194000e43221000482420015c0b3001542980021
:1019500044392100144278000482fb006e22b90051
:1019600084027800043321000482420015c0b300d1
:10197000054a780044392100144278000482fb00b3
:10198000e5cfb3001ec362006e22b9008402780066
:101990006432210004824200064a78004439210062
:1019a000144278000482fb006e22b90084027800a1
:1019b00084322100048242009e029000050a7800d1
:1019c00044392100144278000482fb006e22b900e1
:1019d00084027800a4322100048242002e03900089
:1019e000060a780044392100144278000482fb0082
:1019f0006e22b90084027800c432210004824200c1
:101a0000be029000050a7800443921001442780093
:101a10000482fb006e22b900840278004432210067
:101a2000048242004e039000060a780044392100e7
:101a3000144278000442e8006742620004437800e0
:101a400045392100864a7800643921001442780023
:101a50000442e8000443780065392100864a780092
:101a60007439210014427800e04f520001003a001e
:101a70008a40a8000000fc0014c0b3000200370038
:101a80000000fc0000c2eb00044078000080fa0077
:101a9000000006000200fa00000f7800ff3ffc0083
:101aa000a43a210014427800e74f520017003e008c
:101ab000843a2100144278000482fb008402420030
:101ac00084392100048242001e0a7800a43a2100d1
:101ad000144278000442e80004437800a53a21004b
:101ae000864a7800843a2100144278000442e800d3
:101af0006742620004437800853a2100864a7800f4
:101b00000000fc0014c0b300020037000000fc001d
:101b100000c2eb00044078000080fa0000000600dc
:101b20000000fa00a43a210014427800e04f52006d
:101b300017003200943a2100144278000482fb001e
:101b40008402420084392100048242001402780099
:101b500004000100a43a2100144278000442e90084
:101b600004437800a53a2100864a7800943a21007f
:101b7000144278000442e80067426200044378009f
:101b8000953a2100864a780014c0b300010037005e
:101b900000c2eb00044078000080fa00000006005c
:101ba0000000fa000060fe0000000000b410800099
:101bb00061026200e00f5200fcff3a00b4108000a6
:101bc00064026200e00f5200f8ff3a00b410800097
:101bd00068026200e00f5200f4ff3a00b410800087
:101be00070026200e00f5200f0ff3a00c510800062
:101bf0000400240004826200e00f5200ebff3a0070
:101c00006439210014427800e04f5200e7ff3a00a7
:101c10007439210014427800e04f5200e3ff3a008b
:101c20000080fa00000006000040da000000fe001c
:101c3000881f780002047800080178003204070049
:101c4000080040004f047800000006000000fa0081
:101c5000881f780000047800ea8157003fb9970098
:101c60008800780080e1200007000700e00f5000a6
:101c7000020035000042eb00047478004f04780045
:101c80000080fa00000006006200fa00889fbe0093
:101c9000810478008a9fbe00020478008c9fbe00f9
:101ca000000578008300780020f92f000f00400025
:101cb000200607000002eb00849f9f00ea8f9f0030
:101cc000f98f9f004b5d21000a5c2100f9ff27007e
:101cd000184278008486fb00540220000d06fb00a9
:101ce0008d06ea00cf6ede00840f56000d00320034
:101cf000e18f56000b003a000d0178008800780053
:101d00007f8897006f8a970004000100f08f9f0082
:101d1000e00f5000890032000f9a97000402e8009b
:101d2000849f9f000d04440054022000840f56003d
:101d300004003200e00f5600e5ff3a000f989700cc
:101d40007f0037000002eb00e4979f00d4979f00cc
:101d5000c4979f00b4979f00a4979f0094979f00fb
:101d6000050037000b00500000004000af9a9700bc
:101d70006a02780005027200080678000c047800f8
:101d8000a49f9f00405d2100b84678008d00fb00b5
:101d9000e4030700e00f5000f2ff3a00a4c2b300d2
:101da00084cf56000e003a009f8a97000582e90012
:101db000948f9f0014027800949f9f00e00f5200c0
:101dc00005003d000402ea00949f9f002f9a9700af
:101dd0000420a000a49f9f000c04e8000d00370021
:101de000909f9f0004003700890f500002003200ce
:101df0006a00b900000042000c0478000806780070
:101e00003c02fb000403b100e90f5200f6ff36006c
:101e1000909f9f00e4c2b300984f1200020032006e
:101e20000082eb0018003700a4c2b300d84f1200a4
:101e300007003a009f8a97000582e9000804e8003d
:101e4000948f9f0014027800f4979f000f003700d2
:101e50000002eb0088027800f4979f00040037002e
:101e6000890f5200020032006a20b90000024300cc
:101e700005047800880278003503fb000603b100f2
:101e8000e90f5300f6ff3600f4979f0018467800dc
:101e9000c05c21008c00fb00a2030700e00f500093
:101ea000020032000804e800010037000046780014
:101eb000ec779f0084c6b300844f560004003a00bc
:101ec000984f16000a003a0066425200060037009a
:101ed000c4c6b300844f560005003a00984f160060
:101ee00003003a0065424200e4779f000804e800de
:101ef0001801fb0083fb2f008f81410021f92f0087
:101f00008f80400040f92f000f00400011000700b3
:101f1000e00f500009003a0081fb2f008f80400045
:101f200040f92f000f004000c6040700e00f5000ea
:101f3000020035000804e80065ff37000080eb0070
:101f40004f06be004f05be004f04be000080fa00e1
:101f500000000600e4c6b300889fbe008a9fbe0052
:101f6000844f5100be00320010003c006b42520012
:101f7000844f51001800320005003c0054c2b300e9
:101f8000844f5100f800320084c5b3000f003700c1
:101f900044c6b300844f5100150032006542420030
:101fa000844f5100f3003a001100370004c7b3001a
:101fb000844f5100de003200580035006542420077
:101fc000844f51005500320063424200844f51005b
:101fd000e8003a00510037009182e9008508780056
:101fe000700290009542780085717a00e700370012
:101ff00020629000c5c6b300854f520009003a0028
:10200000110278006404520088087800980090005b
:102010001802be00cf88de0001037800810378003b
:102020001200370015c7b300854f5200030032007d
:10203000a5c6b300854f520006003a009102780011
:1020400068825200840878005403be004402be0037
:10205000060037001182e900840878001402780035
:10206000cfa2de0005037800860378000498be0046
:102070000690be00a060900088c6b30088cf5000d4
:102080000e00320028c6b30088cf500005003a0089
:102090000402fb00cfa2de0005037800860378006f
:1020a0000900370048c7b30088cf50000300320052
:1020b0006644440088cf500005003a00cfa2de00fd
:1020c00005037800860378000498be000690be00e1
:1020d0003004be002005be0070029000d5c2b300df
:1020e000e00f5400e08f5c00e00f5d00e08f5d00ca
:1020f0000800350080129000628362000200320006
:10210000b5c2b30003003700e18262004f00320025
:1021100005c2b30085717a004a0037002062900042
:10212000c5c6b300854f520007003a00110278007f
:10213000640452000003eb008808780086037800ee
:102140001802be001200370015c7b300854f5200b9
:1021500003003200a5c6b300854f520006003a00c6
:102160009102780068825200840878005403be000f
:102170004402be00060037001182e900840878009e
:10218000140278000500200006002000070020004f
:102190000498be000690be00a060900088c6b30000
:1021a00088cf50000d00320028c6b30088cf500001
:1021b00004003a000482fb00050020006033b800f0
:1021c0000900370048c7b30088cf50000300320031
:1021d0006644440088cf500005003a000500200006
:1021e00006002000070020000498be000690be00f4
:1021f0000012900068026200140032003002be003b
:102200002003be00e00f5200e08f5a00e00f5b0099
:10221000e08f5b000d00320084c7b300844f510093
:102220000300320084c5b300844f510007003a0018
:102230007002900005c3b30085717a000402e800c3
:1022400082717a000402e800740098007002900025
:10225000824078008481410063009800400037008c
:10226000a0629000c6c6b3001182e90086cf52007a
:10227000230032000a003c006443530086cf520022
:102280002600320006c3e80086cf52001300320059
:102290006843530086cf52001f003a000a003700ff
:1022a00046c7b30086cf52001c003200664343008d
:1022b00086cf5200190032006943530086cf520086
:1022c00015003a00050037008408780014027800f1
:1022d00040589000004a78002e00370084087800ab
:1022e0006008900014027800cf80de0001017800c1
:1022f00082017800009abe000292be0025003700dd
:1023000084087800600b900014027800cfb3de00e0
:10231000068abe001f0037001182e9008408780099
:102320001402780060089000000a78001900370055
:102330001182e9008408780014027800cfa2de0040
:1023400005037800860378000498be000690be005e
:1023500070029000848141006300980081c7b3003f
:102360007b0207000b0037007002900082717a0038
:10237000060037007002900084814100e04f510058
:1023800001003a0052c2b300824978000402e8001a
:10239000740098004f05be000000eb004f04be0023
:1023a00000000600889fbe008004780000af800017
:1023b000e00f500004003a000e0007000084eb001c
:1023c000e00f50000800350008af8000e08f540097
:1023d000050032000900440006000700e00f50002d
:1023e00001003d000084eb00080078004f04be00af
:1023f00000000600e00f500004003a00245e2100b7
:1024000004af880000027800060037000082eb006d
:10241000259e2100850f500002003e0000af88007d
:102420000002eb00040078000000060003f0a200a8
:10243000889fbe008a9fbe008c1f7800c8000700de
:10244000cf0033006450e1004f0032006420e1000f
:102450005200320003826c0007003b000905d000e7
:102460000306d000820f54000c065d000200390004
:102470000200320089017800030678008582550049
:1024800004003d000003fd008103fd008502ea0019
:102490008b854200840f720002003b006000100038
:1024a000e08018006011b8000005eb007a28e10018
:1024b0000a00390006007800c75ddd00f707b200aa
:1024c000878075002d003700828171000a01780035
:1024d000610560008180d1000080d3008502e900a1
:1024e000f9ff3b00060440008784480002003b00df
:1024f00060041400e0841c000988a3000700320077
:102500008a81710082817100610164008904d100b7
:102510000884d3008b05e800170037000978a30072
:1025200013003a000b00e000130034008b05e900b3
:102530000804440089844c000a4474000978a3000c
:102540000d003a000b00e000070034008b05e900a5
:102550000804440089844c0001003a000b0020006c
:102560000978a300f7ff32000001eb0002003700fa
:10257000828171000a017800530007000cf0a70067
:1025800001f0a000870037006420e10002003a005b
:10259000838f6c00870033000801be000200be007c
:1025a00080003700889fbe008a9fbe008c1f780085
:1025b0006b0007007200330003866c006450e1007a
:1025c0002e0032006420e100330032006150e1004f
:1025d0002f0032006120e100310032008585550076
:1025e000eb07b000090020000804200005003700b8
:1025f0000804440089844c000a00310006034300ab
:1026000087834b000001530081815b00f8ff33009a
:102610000203be000800a0000804440089844c00a6
:10262000f6ff3900c639dd00830173000100320076
:10263000130020008904d1000884d3000998a30066
:10264000050032000800a7000300a0008904d100a3
:102650000884d3008b05e8008904d1000884d300e6
:102660000001eb000281d2001700070001f0a10079
:102670000cf0a70001f0a0004a0037006420e10040
:102680004c0032000801be000200be00f7ff370018
:102690006120e100470032006000b800f3ff37001e
:1026a0000000200001f82700f0ff37001400200090
:1026b000870037004f89de00820178009f003700d5
:1026c0006011b800ad003700810020006180550026
:1026d0000b003d000b00200061fe2f000100e10017
:1026e0001d00340082817100610164008904d10001
:1026f0000884d3000000e800faff3a0071002000cf
:1027000061006400030070000200600009003200f4
:1027100061044400e0844c000988a50005003200f3
:102720008b05e8006808e10002003a008904d10046
:102730000884d300f20f20000258e10005003d009c
:10274000c75ddd00f907b2008980750008007800d8
:10275000000006000bf827008b0078000000050041
:102760000004be00b40007000003be000405be0064
:102770000200be00b0000700844f75000000060094
:102780000200be006450e100050036006420e10054
:10279000020036000968a30001003a000800be00ec
:1027a0000160a0004f0678004f05be004f04be0038
:1027b00000000600f0ff2f00f1ff2700f9ff3700af
:1027c000889fbe008a9fbe008c1f7800e4ff070030
:1027d000ebff330003866c006450e10024003200fc
:1027e0006420e100270032006150e1002200320045
:1027f0006120e100210032008b854200eb07b1002f
:102800000134b800003ab8000804420089844a0044
:10281000013ab8000030b8008880400009014a0041
:10282000040033000000400081804800020149009c
:102830008b05e900c909dd00830170000100320049
:1028400013002000c814de004814dd004709de0034
:102850001200b200c808de00088470009aff07006a
:1028600001f0a1000cf0a70001f0a000cdff37009f
:102870006120e100cfff32000801be000200be006f
:10288000f7ff37006150e100fcff3a00c9ff370055
:102890006022b800060220000000d0008180d20033
:1028a0000482d2008582d2000000a0000202520001
:1028b00083825a00030031000202420083824a00f0
:1028c0000000a1000603e900f3ff3a000000060043
:1028d000889fbe008a9fbe00841f7800a0ff07006b
:1028e0004f00780011003300f0ff2f00838f6c0041
:1028f00006003b00040565000a00a7000800370039
:1029000009f0a6001000200008003700820f5400d4
:10291000838f5c00030039001000200001003e009e
:102920000000200009f0a7000000ea004f05be00eb
:102930004f04be000000e00000000600881f780081
:10294000030478000300e00007003d006000100071
:10295000e080180060011900e081190002003b00ce
:1029600001f02d00030037000400070008f0a70065
:1029700001f0a0004f04780000000600889fbe0010
:102980008a9fbe0000827000040271000482710000
:10299000260032000004be000200be006011b80034
:1029a0006b092000950220000182cf000a00390047
:1029b0000541b1000082cf00070039000541b10098
:1029c0000982cf00040039000541b1000882cf0020
:1029d000010039000541b1000542520012003200e9
:1029e0000a003b0082817100610164008100d10016
:1029f0000080d3008984d3000884d3008b05e800cd
:102a00000442e800f7ff3a000700370008044400da
:102a100089844c0000004800818048008b05e90053
:102a20000442e900f9ff3a0027ff07004f05be0006
:102a30004f04be0000000600c70ade00f107b20026
:102a4000f50fb20008003200e1cf42000200320070
:102a50000170a00024000500810f70000100320009
:102a60000408050044000500810f700002003a00d0
:102a7000140005008502e9000000400081c0480004
:102a8000fcff3b000170a00024000500889fbe00f1
:102a900000047800d4ae8000e00f52000200320043
:102aa000040078000d003700e4ae8000c05d210016
:102ab00004003700940f5400240036000480e8001e
:102ac00014029000e00f5200faff3a0010003700a5
:102ad000950f54001d0036000580e8009002780034
:102ae000e08f5200faff3a0094027800c05d2100a6
:102af000e4ae800004003700940f54001300360049
:102b00000480e80014029000850f5200faff3a009a
:102b1000f9ae8000888f54000100310088047800ed
:102b2000090078003c000700e00f500004003a0064
:102b3000888f5400050032008904d100f5ff37006a
:102b4000091878003e000700d2ff37004f04be008e
:102b50000000060000027800881f78000000eb00eb
:102b6000630442000800a100840f540021003600d5
:102b7000e30f540001003e004800200008007800e8
:102b8000c2ff0700e00f50001a0032001002780068
:102b900014037800e4025300888f520003003100d0
:102ba0009402900005087800070037008802420070
:102bb00005087800140390009602980090027800af
:102bc000940a1400080a780090027800e08f5200fe
:102bd0000600320015039000e00f5300020032009f
:102be0008582e8000100370086027800d5ae8800b3
:102bf0000480e8004f04780000000600000278001e
:102c000002003700015a78000201e900e00f51008c
:102c1000fcff3a0000000600000278000000eb0014
:102c2000800f52000500340004007800ddfd07002d
:102c3000e10f400001003a000000eb000000060038
:102c4000e00f50002f00320040037800e30f5300e4
:102c50002c003600610263002a003a00e4ae8000d6
:102c6000e00f520002003200840f500004003100d7
:102c700014009800e0ae88001600370005027800c6
:102c800094029000e08f520002003200808f5200c8
:102c9000faff39009403780087004200810f50004a
:102ca00018003900808f500003003a00068a430064
:102cb0000400780007003700e08f52000300320064
:102cc00006034000868f52000e0039001500980060
:102cd0001002980010029000e00f5200090032002c
:102ce00090024000850f520006003a00a55d2100c9
:102cf000800aeb00900278001488420014029000d1
:102d0000140098000000060000027800020037005e
:102d1000315a78000201e900e00f5100fcff3a004f
:102d2000000006000002780002003700e0cf5200e9
:102d3000060032000400780000027800b4427800f7
:102d400081cf5200f9ff3a000000060000000500a4
:102d500084c5b3004f02b000889fbe008a9fbe00aa
:102d60008c9fbe00000678008e1f780084cf500034
:102d70000a0032007742420084cf50000a0032003d
:102d80006942420084cf50000b003200e05a21001b
:102d9000ae00200080bf9f000a003700c459210008
:102da00084bf9f0006003700e55a21008e002000f6
:102db00085bf9f0003003700e65a210086bf9f00b1
:102dc0000e0120003c02be002c03be0040c6b30032
:102dd0000605be000404be0080cf50000300320090
:102de0006540400080cf50000b003a00e00f5200d9
:102df000e08f5a00e00f5b00e08f5b0006003d00b3
:102e00006044b8006055b8000404540085845c0038
:102e100006055d0087855d00e80f5700040032005d
:102e200044002000f00f570038003a00010037003e
:102e300034002000e00f5400e08f5c00e00f5d00e4
:102e4000e08f5d0004003a00dc0a90008d01200054
:102e5000e08f5200060032008e02e9008fbb97001f
:102e6000888262007d012000e7c27a00f5e79f00ba
:102e7000040078008e02e9000000e900050033003c
:102e80008b05d1000a85d3008984d3000884d30040
:102e9000f9ff3700089ebe000a96be0011003700f9
:102ea000008362008fbb97008d06e90067447b00ba
:102eb00007fd2f008f8343000403780088f37e0012
:102ec0000603e900050033008381d1000281d300ad
:102ed0008180d3000080d300f9ff3700009ebe0040
:102ee0000296be003c00be002c01be00e00f500068
:102ef000e08f5800e00f5900e08f5900990034002e
:102f0000e08f5600e6ff3c00960037002c629000f0
:102f100085c6b300854f52000b00320006003c000e
:102f2000e04f520008003200e6c25200854f5200c6
:102f300052003a0004003700c5c6b300854f520066
:102f40004e003a0024003700e00f540004003a001d
:102f50005c0a90008d012000e00f52000600320054
:102f60008fbb9700110009000e84d8007d0120005e
:102f7000e7c07800f1e79f00110009000e84d80037
:102f80000a003700110009000e04d8000e82b900b3
:102f9000040454000fba97008d06e900e4427c0057
:102fa00004fd2f000f02420005f27e0000047800ad
:102fb000e00f540002003200e08f5600f1ff3c00a9
:102fc000cfc4de00090578008a057800089ebe009f
:102fd0000a96be0063003700e00f5400e08f5c00eb
:102fe00004003a005c0a90008d012000e00f5200be
:102ff000070032006171b9000800be005e010700e1
:103000000fbb97007d01200066437800f6e79f0024
:103010006175b9000800be000a01be001cfe070071
:103020000b0037000800be000a01be004301070084
:103030008fbb970000f2b900040454008d06e9002c
:1030400067427c0007fd2f008f83430084f37e00de
:103050000004be00e00f5000e08f58000200320074
:10306000e08f5600efff3c004fcade00088ebe0026
:1030700024069800340698003a003700e00f540008
:10308000e08f5c00e00f5d00e08f5d0004003a001f
:103090005c0a90008d012000e00f52000b0032000e
:1030a0000e027800cfa2de000503780086037800c8
:1030b0000800be000a01be00e40107008fba9700b5
:1030c0007d012000e5427800f5e79f000e027800c0
:1030d000cfa2de0005037800860378000800be005a
:1030e0000a01be00c4b79f00d5b79f00e6b79f0096
:1030f000f7b79f00ce0107000f0037004fb29700cf
:10310000dfb297006fb39700ffb397000800be00cf
:103110000a01be00d101070000f2b9008fba970082
:10312000040454008d06e90065437c0005fd2f0072
:103130008f82420086f27e00009ebe000296be0094
:103140003c04be002c05be00e00f5400e08f5c0084
:10315000e00f5d00e08f5d0002003400e08f56005c
:10316000e6ff3c00e80f570010003a000c129000f8
:10317000680262000d003200f78f560006003e0024
:1031800007fd2f008f83430004c3b300e7c27e0016
:1031900084cf5200050032008d06e90000c3b30061
:1031a00008fd2f000f04440000f47e0004fd2f00f2
:1031b0000f024200788116008d004200120e980026
:1031c0006c009000d0fe07001c0a9000dc0a900002
:1031d000850f520006003d0004825200040e980044
:1031e0000c1290000440a100041698000f00370054
:1031f000e08f52000d003d008c129000f4826200be
:10320000f08f520009003a007c0b9000fc02900005
:10321000850253000c0b90008682520004825200fb
:103220004240a90001003400040e98004f077800c6
:103230004f06be004f05be004f04be004f02b10056
:10324000000006000400fa00889fbe000004780019
:103250008a9fbe00780290008c1f7800f80d9000c5
:103260000106780084855500080a90008485550081
:10327000180a900084855500280a9000848555001e
:10328000380a900084855500480a900084855500ce
:103290000402220094bf9f0004032300a4bf9f00e8
:1032a000081290006402620015003a00e08f550099
:1032b000130034000b0578008a047800e20f5500f3
:1032c0000100360029002000480290000901780022
:1032d000ee80570058009000040001005004980050
:1032e000e00f50008c003200680a9000090555007c
:1032f00009024200640c9800e00f5500eeff3c000c
:1033000078019000e00f51000c003400480290005a
:103310008c00780058009000040001000082eb004f
:1033200050049800e00f50007c003200e80a900042
:103330007802900004824200640c9800880c90008f
:10334000e08f54001100340009057800e28f54002a
:10335000010036002a002000480290000a0178008f
:10336000ec805700580090000400010050049800c1
:10337000e00f500068003200680a90008a84540010
:103380000a024200640c9800edff37001809900013
:10339000e00f51000c00340048029000e80090005b
:1033a00058009000040001000082eb0050049800d7
:1033b000e00f500059003200e80a9000180a90000f
:1033c00004824200640c9800a80c9000e08f540026
:1033d0001100340009057800e28f54000100360026
:1033e0002a002000480290000a017800ec80570073
:1033f000580090000400010050049800e00f5000b5
:1034000045003200680a90008a8454000a02420093
:10341000640c9800edff370038099000e00f510070
:103420000e003400180a9000e80090005800900048
:103430008480400048029000040001000082eb00fc
:1034400050049800e00f500034003200e80a900069
:10345000380a900004824200640c9800c80c900066
:10346000e08f54001100340009057800e28f540009
:10347000010036002a002000480290000a0178006e
:10348000ec805700580090000400010050049800a0
:10349000e00f500020003200680a90008a84540037
:1034a0000a024200640c9800edff370008129000f9
:1034b00064026200190032000002eb00848f5500a4
:1034c000160034008b04780009057800e28f540060
:1034d000010036002a002000480290000a0178000e
:1034e000ee8057005800900004000100500498003e
:1034f000e00f500008003200680a90008a845400ef
:103500000a024200640c9800e08f5400eeff3c0079
:103510000002eb00010037000082eb004f0678004c
:10352000040078004f05be004f04be000080fa0082
:10353000000006000108780000000600839f680074
:103540000100e00002003d0060001000e080180073
:103550000300e00002003d0060011100e08119005d
:10356000cbfc07004f00e00002003b0060001000b1
:10357000e080180000000600c5fc07000400be0043
:1035800000000600889fbe008a9fbe003004be0077
:103590002005be000404440085844c0006054d004f
:1035a00087854d000898be000a90be000440e100e7
:1035b00005c8e10006d0e10007d8e10002003100b3
:1035c000680040001008e8004f05be004f04be0030
:1035d000000006001000fa00889fbe008a9fbe000f
:1035e000110020000605be000404be003002be002b
:1035f0002003be00c4b79f00d5b79f00e6b79f0069
:10360000f7b79f000802520089825a000a035b0044
:103610008b835b0084bf9f0095bf9f00a6bf9f0068
:10362000b7bf9f000498be000698be004fb2970037
:10363000dfb297006fb39700ffb397000820e10057
:1036400009a8e1000ab0e1000bb8e100010039006f
:103650008000eb004f05be00108810004f04be0034
:103660000080fa00000006001400fa00889fbe00e7
:103670008a9fbe008c9fbe000006eb003e00070044
:10368000ccb79f00bcb79f00acb79f009cb79f0012
:103690008cb79f000605be000404be000d04200088
:1036a0004fb39700bfb29700860343002fb2970035
:1036b000e00f530004003d003d0007000f004000f4
:1036c000b0ff070003003700390007000f0040007b
:1036d000c0ff0700cfb2970095bf9f00e08f520058
:1036e000090035002b000700140020000500200011
:1036f0006033b80000007200818072000201730024
:10370000838173001c0007000c06e8008d0f560033
:10371000e3ff3a001fba9700e00f520005003d009a
:103720000802be000a03be0000fe2f000f0040008a
:1037300094ff07004faa9700e00f520008003a00dc
:103740000fb497009fb497002fb59700bfb59700af
:10375000d8b79f00e9b79f00fab79f008bbf9f00c3
:103760000c0007004f06be004f05be004f04be0010
:103770000080fa00000006000100070000000600bb
:1037800090b79f00a1b79f00b2b79f00c3b79f003b
:103790000000060001000700000006001fb09700af
:1037a000afb097003fb19700cfb19700000006007f
:1037b0004f2bde00f9ff07008683730085824200ed
:1037c0004f23de00a7b79f008682720004024200ea
:1037d00095b79f00ffaa97004f2bde00858242001d
:1037e0000602720084b79f006faa97004f23de0085
:1037f0000402420086827200f5af9f004f18de007f
:1038000000027200e5ff0700e4af9f0000004000e7
:103810008180480002014900838149000802be00fe
:103820000a03be00d6ff070000fe2f0000000600be
:10383000881f780018002000881f78008aff070082
:103840008f87e9004f04780000000600801feb001e
:1038500085ff07008f87e90000000600889fbe00f3
:103860008a9fbe00e00f5000e08f5800e00f590023
:10387000e08f59000c003d006044b8006055b8006e
:103880000000540081805c0002015d0083815d00c6
:10389000180020001500070008003d001800070070
:1038a0000004eb00050037000004eb000f000700e8
:1038b00002003d001200070018002000dcff070096
:1038c000e00f5400060032006022b8006033b800f8
:1038d0000000520081805a0002015b0083815b007e
:1038e0004f05be004f04be0000000600e00f52006e
:1038f000e08f5a00e00f5b00e08f5b0000000600e5
:103900006044b8006055b8000402540085825c0031
:1039100006035d0087835d0000000600889fbe00ef
:103920008a9fbe008c1f7800e00f5000e08f580087
:10393000e00f5900e08f59000d003d006044b800d1
:103940006055b8001c0020000000540081805c001d
:1039500002015d0083815d000820e10009a8e1000b
:103960000ab0e1000bb8e1000d003d00080037008f
:103970000006eb00e00f5200e08f5a00e00f5b0002
:10398000e08f5b0006003d006044b8006055b80061
:103990000402540085825c0006035d0087835d009d
:1039a000aaff0700e00f5600060032006022b800b0
:1039b0006033b8000000520081805a0002015b00b1
:1039c00083815b004f0678004f05be004f04be00a8
:0439d00000000600ed
:020000040000fa
:1039d400000700000e0900001c1b00001215000067
:1039e400383f000036310000242300002a2d000057
:1039f400707700007e7900006c6b00006265000047
:103a0400484f000046410000545300005a5d000036
:103a1400e0e70000eee90000fcfb0000f2f5000026
:103a2400d8df0000d6d10000c4c30000cacd000016
:103a3400909700009e9900008c8b00008285000006
:103a4400a8af0000a6a10000b4b30000babd0000f6
:103a5400c7c00000c9ce0000dbdc0000d5d20000e6
:103a6400fff80000f1f60000e3e40000edea0000d6
:103a7400b7b00000b9be0000abac0000a5a20000c6
:103a84008f88000081860000939400009d9a0000b6
:103a940027200000292e00003b3c000035320000a6
:103aa4001f18000011160000030400000d0a000096
:103ab40057500000595e00004b4c00004542000086
:103ac4006f68000061660000737400007d7a000076
:103ad400898e000087800000959200009b9c000066
:103ae400b1b60000bfb80000adaa0000a3a4000056
:103af400f9fe0000f7f00000e5e20000ebec000046
:103b0400c1c60000cfc80000ddda0000d3d4000035
:103b1400696e000067600000757200007b7c000025
:103b2400515600005f5800004d4a00004344000015
:103b3400191e000017100000050200000b0c000005
:103b4400212600002f2800003d3a000033340000f5
:103b54004e49000040470000525500005c5b0000e5
:103b640076710000787f00006a6d000064630000d5
:103b74003e39000030370000222500002c2b0000c5
:103b840006010000080f00001a1d000014130000b5
:103b9400aea90000a0a70000b2b50000bcbb0000a5
:103ba40096910000989f00008a8d00008483000095
:103bb400ded90000d0d70000c2c50000cccb000085
:103bc400e6e10000e8ef0000fafd0000f4f3000075
:103bd40012010000000200000200000000080000c2
:103be400d80400000a0000000001000001020000e7
:103bf400000100000902000043000000020100006f
:103c040000c00000320900000400000000010000b0
:103c14000202000001000000052400000010000062
:103c24000104000024020000020500002406000034
:103c3400000100000524000001000000010700004d
:103c440005810000030800000002000009040000d0
:103c540001000000020a000000000000000700004c
:103c640005020000024000000000000007050000fb
:103c74008202000040000000000000000403000075
:103c840009040000340300004d0000006900000036
:103c940063000000720000006f0000006300000079
:103ca40068000000690000007000000020000000af
:103cb400540000006500000063000000680000007c
:103cc4006e0000006f0000006c0000006f00000038
:103cd4006700000079000000200000004900000097
:103ce4006e000000630000002e000000340300009a
:103cf40043000000440000004300000020000000d6
:103d040052000000530000002d00000032000000ab
:103d140033000000320000002000000045000000d5
:103d24006d000000750000006c00000061000000e0
:103d340074000000690000006f0000006e000000c5
:103d44002000000044000000650000006d00000039
:103d54006f000000fc9d0000409e0000449e000097
:103d6400789e0000253000003378000025640000b0
:103d74002530000033780000256400000a000000ac
:020000040000fa
:103d84000200fa009ec0a9000082eb00742488009f
:103d94000082eb00542488000002eb0054258800c4
:103da400420020008000eb00c04a200092fb070084
:103db40024002000342588000002eb0044258800fc
:103dc4008644a900f409200084248800f409200012
:103dd400642488008804a800044021004822de00ee
:103de400c42488000042eb00044f78000800370028
:103df4009e4278000582fb00c222dd0004402100bf
:103e0400048342006022b800048bbe001e4fe80009
:103e14001e427800eb4f5200f5ff36009424a800b0
:103e24000002eb00b424880094a4a9009424a900ff
:103e34001600370084002000542488000042eb0060
:103e440084427800e64a2100054b78000042eb00ea
:103e540084427800464b2100054b7800544b2100e6
:103e6400144278006042620084427800564b21007c
:103e7400054b7800644b21001442780060426200d4
:103e840084427800664b2100054b7800542480005e
:103e940068026200e00f5200e6ff3a0014002000be
:103ea40074a688001400200084a688000002eb0099
:103eb40094a688000002eb00a4a688000002eb0090
:103ec400f4a588000042eb00044f78001b00370083
:103ed4001e4378000682fb0084024200444a21000b
:103ee400048242008002eb00050a78009e427800ba
:103ef4000582fb0084024200e4492100048242005e
:103f04008002eb00050a78001e4378008682fb00dd
:103f1400444c2100048242008042eb00054a7800b0
:103f24001e4278008482fb00744c2100048242000b
:103f34008042eb00054a78001e4fe8001e427800dc
:103f4400e24f5200e2ff36008440210024a588009d
:103f5400d400200054258800644d210014a088005a
:103f640084c0b3000443780005402100864a7800e9
:103f740044c8b3000443780015402100864a780001
:103f84000042eb000443780065492100864a78002a
:103f94000002eb00a4a488000080fa0000000600e0
:103fa4003600f800809fbe00829fbe00849fbe0042
:103fb400869fbe003400f80000002000a0018800a5
:103fc4000200fa00a4a48000e10f52000b003a00a2
:103fd400a52480000404200004826200e00f520043
:103fe40006003a000082eb00542488008c04a800e8
:103ff4008c84a80024002000a4a488000424800049
:1040040070026200e00f52000700320014248000a6
:1040140070026200e00f520003003200040120002d
:1040240004248800c2040700442480006202620061
:10403400e00f5200020032008ec0a900ab0037002e
:104044005424800061026200e00f52000a00320032
:104054006424800061026200e00f52000600320016
:1040640047ff07009ec0a80044002000a4a48800c5
:10407400140020005424880054248000700262003c
:10408400e00f5200070032006424800070026200d6
:10409400e00f5200030032009904070004012000dd
:1040a400542488005424800064026200e00f52000b
:1040b400190032006424800064026200e00f5200a0
:1040c40004003200120020008000eb0030072000c2
:1040d4003f0d07004400200054248800a44c210014
:1040e40014427800e04f520006003200a44c210034
:1040f400144278000442e90004437800a54c2100ee
:10410400864a7800a44c210014427800e04f520003
:1041140001003a00a801070055248000040820008b
:1041240004826200e00f5200060032006524800021
:104134000408200004826200e00f520001003200f3
:10414400580407005424800062026200e00f520009
:104154000c0032006424800062026200e00f52000e
:1041640008003200120020008000eb00f0ff27005e
:10417400170d07000082eb0074248800240020003f
:1041840054248800a4a48000e30f520002003e00df
:104194008ec0a900550037006424800068026200c4
:1041a400e00f5200500032000042eb00044f780050
:1041b400480037005424800068026200e00f520077
:1041c40048003200942480000442780004437800bc
:1041d400054c2100864a7800044c210014427800e2
:1041e4000482fb004422de00044278000443780089
:1041f400154c2100864a780084002000542488004d
:10420400044c21001442780068426200e04f5200de
:1042140013003a00144c2100144278000483fb007c
:104224008482fb00744c2100048242009442780092
:1042340061c262000404a200e1426200744c2100e5
:1042440004024300e1c2620094437800e6cfb30065
:1042540006c3630085427300054a780012003700e4
:10426400144c2100144278000483fb008482fb0078
:10427400444c2100048242009442780061c26200ee
:104284000404a200e1426200444c21000402430001
:10429400e1c2620094437800e6cfb30006c3630032
:1042a40085427300054a7800144c210014427800ba
:1042b400e04f520002003a002904070004003700ce
:1042c4000001eb00014c210020072000c00c070076
:1042d4001e4fe8001e427800e34f5200b5ff36003f
:1042e40001003700000000008ec0a9000080fa0021
:1042f4003400f9004f03be004f02be004f01be0060
:104304004f00be003600f900004006000400fa0029
:1043140020479800314798003e4290000482fb00f9
:1043240068026200e00f5200030032008040eb009c
:104334002e409000830107003e4290000482fb005f
:1043440064026200e00f52000300320011c0b300a7
:104354002e4090007b010700a54a20002e429000c9
:104364000482fb0004024200048f42001e02780013
:10437400be429000054a78000080fa000000060062
:104384000800fa0020479800314798002207980057
:10439400634798003e429000e04f5200070032000d
:1043a4002e4290000482fb0084024200444a210011
:1043b40004824200140f7800060037002e42900059
:1043c4000482fb0084024200e4492100048242008a
:1043d400140f78001e027800e00f520002003a0029
:1043e4000002eb0031003700ae0290001e0278009c
:1043f400150298001e027800ee429000054a7800eb
:104404001e0278001442900006c4b3008642620083
:104414001e027800154298001e0278009442900013
:1044240084c8b30084c272001e027800154298004a
:104434003e429000e04f52000e003200454a2100f7
:104444002e4290000482fb00040242008482420057
:10445400464a21002e4290000482fb0004024200de
:1044640004024300144278000424a200844a780021
:104474000d003700e54921002e4290000482fb0024
:104484000402420084824200e64921002e42900048
:104494000482fb0004024200040243001442780038
:1044a4000424a200844a78001e02780004007800e4
:1044b4000080fa00000006000400fa00204798007b
:1044c400314798002e429000e04f52000d003a0010
:1044d400e4a4800085c0b300054a7800e4a4800009
:1044e400654d210015029800e4a48000c5c8b300fe
:1044f4001542980024a5800045c8b30015429800d1
:10450400220037002e4290000482fb000402420085
:10451400840278003e4290000482fb000482420040
:104524004322dd008402780004402100048f42000d
:104534001e0278009442900044c8b30084c2720002
:104544001e027800154298002e4290000482fb005f
:1045540004024200840278003e4290000482fb0080
:10456400048242004322dd00e402420004402100b0
:10457400048f42001e0278009442900044c8b300a5
:1045840084c272001e027800154298000080fa006e
:10459400000006000200fa00004f7800a524800005
:1045a4000402200004826200e00f52005b0032002b
:1045b4009e4278000582fb0084024200444a2100a6
:1045c40004824200140078001e4378000682fb0037
:1045d40084024200444a210004824200140278000a
:1045e4001403be00040420000500200086007800a7
:1045f4000703780084037800050278008780600050
:104604000402630005002000c022dd000400200035
:104614000403be00610ab8000403730085837300b9
:104624000688be009e4378000782fb008402420095
:10463400444a210004824200140078009e4278001b
:104644000582fb0084024200444a210004824200a5
:10465400140278001403be000404200005002000a6
:1046640004026b0085826b000488be00454a210069
:104674001e4378000682fb0004024200848242004a
:10468400464a21009e4378000782fb000402420050
:1046940004024300144278000424a200844a7800ef
:1046a4009e4278000582fb0084024200444a2100b5
:1046b40004824200940278001e4378000682fb00c4
:1046c40004034200444a2100040243001402780017
:1046d400144290000444b200944298009e4378002f
:1046e4000782fb0084024200444a21000482420003
:1046f400940278001e4378000682fb000403420003
:10470400444a210004024300140278001443900038
:1047140004c4b30004426b00944298000080fa0081
:10472400000006000000fa000002eb00a424880048
:104734000002eb00642488000002eb00a4a48800bb
:104744000080fa00000006000000fa00a4a4800023
:10475400e00f520016003a000002eb00a424880087
:104764000002eb0064248800240020003425880023
:104774000002eb00442588008644a900f4092000c7
:1047840084248800f4092000642488009ec0a800c2
:10479400010037009404a800a42480006102620090
:1047a400e00f5200fbff320014002000a4a4880094
:1047b4000080fa00000006000000fa0074a68000e1
:1047c400e00f52002c003a001400200074a6880068
:1047d40084a68000e00f520027003a001400200055
:1047e40084a68800b44a210014427800e24f5200a3
:1047f40007003a0024a580008042eb00054a7800b7
:1048040024a5800085ccb300154298001a00370017
:10481400b44a210014427800e14f520016003a00d5
:104824000002eb0014a68800d4a4800085c0b30065
:10483400054a7800d4a48000654d21001502980033
:10484400d4a4800045c8b300154298001400200089
:1048540014a68800e4a4800085c0b300054a78004b
:10486400e4a48000654d210015029800e4a48000b2
:1048740005c8b300154298000080fa000000060045
:104884000000fa000002eb0094a688000002eb008e
:10489400a4a68800b44a210014427800e24f5200d2
:1048a4000a003a00e4a4800085c0b300054a7800f9
:1048b400e4a48000e54d210015029800e4a48000e2
:1048c40085ccb300154298001c003700c44d21006c
:1048d400144278000482fb00d54d210095427800f3
:1048e4008582fb00c82add0005027200840278007c
:1048f40084a58000848f520009003100c44d21003a
:10490400144278000482fb00d54d210095427800c2
:104914008582fb00c82add000502720084a5880098
:104924008a00070024a58000e54d210015029800a7
:1049340024a5800085ccb300154298000080fa00bd
:10494400000006000400fa00204798003147980050
:1049540004402100040f78002e4290000482fb00e2
:1049640004024200840278003e4290000482fb006c
:10497400048242004322dd001e0f42009e027800a2
:104984001502780004f0a100840a78003e429000e9
:10499400e04f520007003a002e4290000482fb00d0
:1049a40084024200e4492100048242001e0a780085
:1049b400060037002e4290000482fb00840242006d
:1049c400444a2100048242001e0a78009e027800b4
:1049d4001502780004e0a100840a78001e02780021
:1049e400e40242001502780004e0a000840a780082
:1049f4000080fa00000006000000fa0094a4a90058
:104a040075a580000408200004826200e00f5200b3
:104a140020003a00454b21009542780004c8b300b9
:104a240004c26200e04f52000d00320024c0b30003
:104a340004437800b54a2100864a7800a4a6800081
:104a4400e00f520001003a008dff07000002eb0066
:104a540084a688000002eb0074a6880039003700a1
:104a6400e4a4800085c0b300054a7800e4a4800073
:104a7400654d210015029800e4a48000c5c8b30068
:104a84001542980024a5800045c8b300154298003b
:104a94002c003700654d21009542780004c8b3000e
:104aa40004c26200e04f52001100320014c0b3008f
:104ab40004437800b54a2100864a780094a6800011
:104ac400e00f520001003a006dff07000002eb0006
:104ad40084a688000002eb0074a6880064a6800007
:104ae400e00f520017003a0033ff070015003700ab
:104af40024c0b30004437800b54a2100864a7800f4
:104b0400e4a4800085c0b300054a7800e4a48000d2
:104b1400654d210015029800e4a4800045c8b30047
:104b2400154298000002eb0084a688000002eb0006
:104b340074a6880064a68000e00f520001003a00c9
:104b44001dff07000080fa00000006000200fa00c2
:104b540084c0b300044f780084a58000e70f52009e
:104b640013003e0084a58000044f7800a44a21006d
:104b740014427800e04f520005003a0014c0b3001c
:104b840004437800a54a2100864a780008003700cb
:104b9400a44a210014427800e14f520004003a0074
:104ba40024c0b30004437800a54a2100864a780053
:104bb40085a580001e4378000682fb000482520013
:104bc40084a5880024a580001e4a7800e44d2100b5
:104bd400d4a5880074a5800061026200e00f520031
:104be40017003a0009003700d5a5800064a58000ad
:104bf40014437800864a78008502e800d5a5880029
:104c04000402e80064a588001e4fe9001e427800f3
:104c1400e04f5200f4ff3a000c003700d5a58000a5
:104c240064a5800014437800864a78008502e80071
:104c3400d5a588000402e80064a588001e4fe90099
:104c44001e427800e04f5200f4ff3a000080fa0060
:104c5400000006000200fa00d4a48000144f78007b
:104c64001e4278008482fb00544b210014427800d9
:104c74000482fb00664b2100164378000683fb0088
:104c84004833dd0006027200848f520009003600aa
:104c9400544b2100144278000482fb00654b210030
:104ca400954278008582fb00c82add000502720067
:104cb400044f7800544b2100144278000482fb0016
:104cc400654b2100954278008582fb00c82add00ef
:104cd40005027200840278001e4378000682fb00fd
:104ce40004825200f50f200085026200564b210019
:104cf40016437800604363008542730005437800df
:104d0400574b2100864b78004822de00654b21007a
:104d140095427800e0c2620004c2720084427800c6
:104d2400674b2100854b78000042eb001447980044
:104d340023003700244b2100144278000482fb0036
:104d4400354b2100954278008582fb00c82add009e
:104d5400050272009e4290000583fb00e54d210090
:104d64008502430095427800054a78000402e80071
:104d7400f50f200085026200264b210016437800bf
:104d8400604363008542730085437800264b21000d
:104d9400074b78004822de00354b2100954278000d
:104da400e0c2620004c2720004437800354b210063
:104db400864a78001e4290000442e8001447980096
:104dc4001e4290009e4f5200daff3900544b2100de
:104dd400144278000482fb00654b21009542780060
:104de4008582fb00c82add0005027200e00f520034
:104df40014003200e4a4800085c0b300054a7800a2
:104e0400e4a48000e54d210015029800d4a480009c
:104e1400940278000400240004826200e00f52002f
:104e240004003a00e4a4800085ccb3001542980045
:104e340025003700e4a4800085c8b300154298001b
:104e440021003700e4a4800085c0b300054a78003f
:104e5400e4a48000654d210015029800e4a48000bc
:104e640045c8b30015429800744b210014427800e1
:104e74000482fb00854b2100954278008582fb006b
:104e8400c82add0005027200e00f5200090032005a
:104e9400744b2100144278000482fb00854b2100ee
:104ea400954278008582fb00c82add000502720065
:104eb40004000100b4f4a90064a68000e00f5200cd
:104ec40001003a003cfe07000080fa0000000600e2
:104ed4000200fa00aef4a800420020008000eb00bb
:104ee400c04a200044f707000042eb00044f78005a
:104ef400080037009e4278000582fb00c222dd00d4
:104f040004402100048342006022b800048bbe00e8
:104f14001e4fe8001e427800eb4f5200f5ff3600aa
:104f24009424a8000042eb00044f78000d003700e1
:104f34001e4378008682fb00444c21000482420018
:104f44008042eb00054a78001e4278008482fb0010
:104f5400744c2100048242008042eb00054a780030
:104f64001e4fe8001e427800e24f5200f0ff360068
:104f7400220020008000eb00704921001ef707008a
:104f84009424a9008440210024a588000440210021
:104f9400d4a48800d4a48000e4a48800844d210013
:104fa400144278000443780065492100864a780059
:104fb4006449210014427800e04f520003003a0093
:104fc40004012000a4a48800060037001200200079
:104fd40061492100100020007d090700040220001f
:104fe400a4a488000080fa00000006000000fa0073
:104ff400654d21009542780004c8b30084cf520067
:1050040044003a0004ccb30004437800e54a21008c
:10501400864a7800944d2100144278000482fb00f3
:10502400e20f520009003200e30f52001d0032006b
:10503400e10f520032003a00a4de290064a5880082
:105044002401200084a5880032003700844d21000b
:10505400144278000482fb000402420084027800b7
:10506400c4ea2900048242001402780064a588007e
:1050740064a580000482e8001442780004437800a8
:10508400054b2100864a780064a580006302420033
:105094001442780004437800154b2100864a7800b6
:1050a4001c003700844d210014427800e24f520066
:1050b4000e003e00844d2100144278000482fb005f
:1050c4000402420084027800e4ea290004824200d7
:1050d4001402780064a5880064a580001442780056
:1050e4000482fb0084a588000a0037000042eb001c
:1050f40004437800e54a2100864a78000500370019
:105104000042eb0004437800e54a2100864a780017
:10511400000000000080fa00000006000200fa000f
:105124000042eb0004437800e54d2100864a7800f4
:105134000042eb0004437800f54d2100864a7800d4
:10514400644d2100144278007f4262000482fb0017
:10515400e10f520015003200e20f52001500320038
:10516400e00f520041003a00aef4a800e44d2100e3
:10517400144278000404a00004437800e54d2100a3
:10518400864a7800e4a58000e10f520032003a001c
:10519400e44d2100144278000414a0000443780074
:1051a400e54d2100864a780030003700aef4a800af
:1051b4002e003700aef4a800a54d210095427800da
:1051c40004c8b30004c26200e04f520009003a0070
:1051d400a44d2100144278006f4262000482fb0057
:1051e40084024200e449210004824200140f780042
:1051f40008003700a44d2100144278006f42620079
:105204000482fb0084024200444a210004824200da
:10521400140f78001e02780094027800040028001d
:1052240004826200e00f52000d0032001e0278007a
:10523400940278000440200004826200e00f5200cf
:105244000900320014c0b30004437800e54d210086
:10525400864a78000500370000000000030037008c
:1052640000000000010037000000000075a5800068
:105274000408200004826200e00f5200070032009c
:10528400e44d210064a58800ae14a80024c0b30036
:1052940004437800054b2100864a78000080fa0018
:1052a400000006000000fa0054258000620262003b
:1052b400e00f52000e003200d4a48000944290000b
:1052c40004c8b30084cf520008003a0024a580002b
:1052d4009442900044c8b30084cf520003003a00c3
:1052e400d4a48000c5c8b30015429800aa24a9001c
:1052f40004082000542488000080fa0000000600fe
:105304000000fa008284a8000401200054248800cc
:1053140014002000f4a588000001eb008000eb00dd
:1053240050072000aa0807000080fa0000000600c9
:105334000000fa000002eb00f4a588000001eb0075
:105344008000eb0040072000a10807008284a90028
:1053540004012000042488000080fa0000000600f4
:105364000200fa00d4c2b30004437800a54c210023
:10537400864a7800044c2100144278008482fb00a1
:10538400b4ff2f0004826200e00f520032003a00a2
:10539400044c2100144278000482fb004222de0007
:1053a400044278000482fb00c222dd000440210094
:1053b40004824200d4a48800d4a48000e4a4880019
:1053c400c4492100c5492100954278000524a20062
:1053d400054a7800d4a480009402780004c0230015
:1053e4008482620004402300848f520018003a0033
:1053f4000042eb00044f78000d0037001e42780095
:105404008482fb00644d210004824200d5a4800004
:105414009502900095427800054a7800d4a4800053
:10542400940290008502e800150298001e4fe800df
:105434001e427800e74f5200f0ff3600d4a48000eb
:10544400654d2100150298000d0007000a00370081
:105454005300070008003700044c21001442780070
:105464008482fb00b4ff2f0004826200e80f520024
:1054740001003a00660007000080fa000000060000
:105484000000fa000042eb0004437800a54a210022
:10549400864a78000002eb0064a688000002eb0054
:1054a40094a688000002eb00a4a688000002eb008a
:1054b40014a688000042eb0004437800b54a21009a
:1054c400864a780024a5800025a580009542900096
:1054d4000574a10015429800444a2100454a210060
:1054e400954278000524a200054a780024a580008e
:1054f40025a58000954290000574a10015429800ee
:10550400444a2100454a2100954278000524a2001e
:10551400054a7800e4a48000e5a480009542900048
:105524000574a100154298000042eb000443780082
:10553400e54a2100864a78000002eb0084a5880031
:105544000042eb0004437800454b2100864a780072
:10555400544b2100144278006042620004437800f6
:10556400554b2100864a7800644b21001442780090
:105574006042620004437800654b2100864a78004b
:10558400780007000001eb008000eb0030002000f1
:105594000f08070018fd07000080fa00000006004d
:1055a4000000fa00b44a210014427800e24f52008d
:1055b40002003a00a7fd0700130037000042eb0089
:1055c40004437800b54a2100864a780014a6800076
:1055d400e00f52000a003a00e4a4800085c0b30042
:1055e400054a7800e4a48000654d21001502980066
:1055f400e4a48000c5c8b300154298000200370037
:105604000002eb0014a688000080fa0000000600e7
:105614000200fa0024a58000140278004e22de0065
:1056240061426200044f7800444a2100454a210047
:10563400954278000524a200054a7800a4a48000bd
:10564400e80f52000c003a00844d21001442780007
:105654000482fb00b4248800b4248000e00f5200cc
:105664000300320004012000a4a4880002003700d3
:1056740044002000a4a48800b44a21001442780005
:10568400e14f520017003a0024a58000e54d2100a7
:10569400150298002dfd0700a44a21001442780049
:1056a400e24f520004003a0024a5800045c8b3002c
:1056b40015429800290037001e427800e04f52003e
:1056c40004003a0024a5800085ccb300154298005c
:1056d4002200370024a5800085c8b3001542980035
:1056e4001e003700454b21009542780004c8b300e2
:1056f40004c26200e04f520014003200744b2100d7
:10570400144278000482fb00854b21009542780006
:105714008582fb00c82add0005027200e00f5200fa
:1057240009003200744b2100144278000482fb000b
:10573400854b2100954278008582fb00c82add0054
:105744000502720004000100b4f4a9000042eb0059
:1057540004437800b54a2100864a78000080fa00a4
:10576400000006000000fa00644d21001442780095
:105774000446b200e04f520047003a00744d210045
:10578400144278000482fb00cfa2de00b6002000a1
:1057940007002000860f5200878f5a0040003e0009
:1057a400046001001c0037001d0037003e00370074
:1057b4001b0037003c0037000600370009003700a3
:1057c400300037000b0037000800370016003700a0
:1057d40022003700aef4a80084002000a4a48800ae
:1057e4003200370001fe070030003700b8fd070023
:1057f4002e0037006449210064a58800ae14a80077
:1058040014c0b30004437800054b2100864a780095
:10581400aef4a8002500370040fe0700230037003f
:105824002400070021003700a44d21001442780011
:105834008482fb00744921000482420064a588002c
:10584400ae14a80014c0b30004437800054b210033
:10585400864a7800aef4a80014003700aef4a8001d
:10586400a44d2100144278000483fb00854d2100df
:10587400954278007449210004024300054a7800e7
:105884000a0037000001eb008000eb00200020003c
:105894004f07070005003700000000000300370031
:1058a4000000000001003700000000000080fa0042
:1058b400000006000600fa00844d2100144278001e
:1058c400e14f52000f003a00644d21001442780069
:1058d4007f426200e04f52000a003a00aef4a80092
:1058e400744d210014427800e34f520003003a0043
:1058f40014002000e4a58800020037000002eb0039
:10590400e4a58800844d210014427800e04f520041
:10591400f8003a00644d2100144278007f4262008e
:10592400e24f5200f3003a00a44d210014427800e3
:105934006f426200e04f5200ee003200a44d21009d
:10594400144278006f4262000482fb00e20f5200ae
:10595400e8003c00a5a4800004022000848f5200cb
:10596400e4003a00aef4a800a54d21009542780069
:1059740004c8b30004c26200e04f520012003a00af
:10598400a44d2100144278006f4262000482fb009f
:1059940084024200e4492100048242001402780097
:1059a40014079800a44d2100144278006f4262004d
:1059b4008482fb00744c210004824200144278006b
:1059c4004447980011003700a44d21001442780088
:1059d4006f4262000482fb0084024200444a2100b8
:1059e400048242001402780014079800a44d210098
:1059f400144278006f4262008482fb00444c210010
:105a04000482420014427800444798004e429000b9
:105a140061426200e04f520007003a000e82e80043
:105a24008e82e80015437800b5cfb3008542630049
:105a3400054a7800050037000e82e8008e82e800ef
:105a4400954278000524a000054a7800a54d210060
:105a54009542780004c8b30004c26200e04f5200cb
:105a64000a003a00a44d2100144278006f426200fb
:105a74000482fb009e02900004034200e4492100da
:105a840004024300050a780009003700a44d2100f0
:105a9400144278006f4262000482fb009e02900070
:105aa40004034200444a210004024300050a78002a
:105ab400744d210014427800e34f520026003a004e
